:030000000209638F
:0C096300787FE4F6D8FD75810A0208F2E6
:0F095400456E74657220746865206B65793A0092
:1008F2001209407F8012096F7BFF7A09795412082E
:0B090200CD7FC712096F12080080E8CB
:10080000D297D296D295D294C290D291D292D293CC
:100810002094073094FD7F37801C2095073095FD8C
:100820007F3880122096073096FD7F398008209708
:10083000083097FD7F2F120979D290C291D292D2BF
:10084000932094073094FD7F34801C2095073095C9
:10085000FD7F3580122096073096FD7F3680082078
:1008600097083097FD7F42120979D290D291C292B7
:10087000D2932094073094FD7F37801C2095073059
:1008800095FD7F3880122096073096FD7F398008CD
:100890002097083097FD7F43120979D290D291D2E8
:1008A00092C2932094073094FD7F2A801C209507E4
:1008B0003095FD7F3080122096073096FD7F238093
:0D08C000082097083097FD7F441209792227
:100940007F3812096F7F0E12096F7F0612096F7FC1
:040950000102096F28
:0A096F008FA0C2B512090DC2B72215
:0A0979008FA0D2B512090DC2B722FB
:1008CD008B088A09890AAB08AA09A90A12092760A7
:1008DD0013050AE50A7002050914F9120927FF121A
:0508ED00097980E22200
:08090D00C2B6D2B77FE87E03F9
:10091500E4FDFCD3ED9FEC9E50070DBD00010C805E
:01092500F2DF
:0109260022AE
:10092700BB010689828A83E0225002E722BBFE02CE
:09093700E32289828A83E4932201
:00000001FF
